:100000000C943B010C946C010C946C010C946C01ED
:100010000C946C010C946C010C946C010C946C01AC
:100020000C946C010C946C010C946C010C946C019C
:100030000C946C010C946C010C946C010C946C018C
:100040000C946C010C946C010C946C010C946C017C
:100050000C946C010C946C010C946C010C94F104E4
:100060000C946C010C946C010C946C010C946C015C
:100070000C946C010C946C010C946C010C946C014C
:100080000C946C010C946C010C946C010C946C013C
:100090000C946C010C946C010C946C010C946C012C
:1000A0000C946C010C946C010C946C010C946C011C
:1000B0000C946C010C946C010C946C010C946C010C
:1000C0000C946C010C946C010C946C010C946C01FC
:1000D0000C946C010C946C010C94BB040C94910472
:1000E0000C946C010C948A030C94F6030C94780322
:1000F0000C9401020C94E4020C9436040C947203E8
:100100000C9497020C945D030C9480030C9486036A
:100110000C9465030C9468030C9498030C94590395
:100120000C94C5030C943D020C9494030C948E0320
:100130000C9461030C947C030C9493030C94510273
:100140000C946E030C942E020C945F020C945303D7
:100150000C943B0500002100240027002A002D00FC
:100160003000330001010000040107010A01000012
:100170002200250028002B002E003100340002014F
:100180000000050108010B010000200023002600EB
:1001900029002C002F00320000010000030106019D
:1001A00009010505050507050808080802020202FD
:1001B0000A0A080804040404010101010101010103
:1001C0000303030303030303040707070C0C0C0CCE
:1001D0000C0C0C0C020202020606060606060606B7
:1001E0000B0B0B0B0B0B0B0B010210202008081044
:1001F0002040102040800201020108040201010297
:10020000040810204080804020100804020180046F
:1002100002018040201008040201080402010102CA
:1002200004081020408001020408102040800000D3
:100230000A0B02090C0D0E08070304010000000060
:1002400000000000000000000000000000000000AE
:10025000000000000000000000001211100000006B
:10026000000000000000000000000000000000008E
:10027000000000003B0511241FBECFEFD1E2DEBF1E
:10028000CDBF00E00CBF12E0A0E0B2E0EAE6F0E192
:1002900000E00BBF02C007900D92A833B107D9F759
:1002A00023E0A8E3B2E001C01D92A435B207E1F754
:1002B00011E0CBE3D1E000E006C021970109802FD7
:1002C000FE010E941D08CA33D10780E00807A9F784
:1002D0000E94C9050C9433080C94000096E0899F95
:1002E000D0011124AB51BD4F90967C936E935F97D4
:1002F00091E091969C939197E0915203F091530372
:1003000090915103992339F0309751F0811108C031
:10031000809101031994309719F05C968C91FACF73
:100320000895CF92DF92EF92FF920F931F9396E082
:10033000899FF0011124EB51FD4F11A2278D30A1AF
:100340002130310551F178F02230310509F451C0E6
:100350002330310509F452C01F910F91FF90EF90A7
:10036000DF90CF9008956623B9F361E070E00E94BA
:100370006E012FB7F8948091440290914502A091AC
:100380004602B09147022FBF80933D0390933E03F6
:10039000A0933F03B0934003DFCF9FB7F894C09082
:1003A0004402D0904502E0904602F09047029FBF81
:1003B00000913D0310913E0320913F033091400393
:1003C000C01AD10AE20AF30A00914F0310915003B8
:1003D00030E020E00C151D052E053F0550F462E0CD
:1003E00070E01F910F91FF90EF90DF90CF900C94F1
:1003F0006E016111B1CF63E070E0F3CF70E060E0B7
:10040000F0CFAF92BF92CF92DF92EF92FF920F9315
:100410001F93CF93DF936C017B018B01040F151F9A
:10042000EB015E01AE18BF08C017D10759F0699102
:10043000D601ED91FC910190F081E02DC601199556
:10044000892B79F7C501DF91CF911F910F91FF9013
:10045000EF90DF90CF90BF90AF900895FC01538D47
:10046000448D252F30E0842F90E0821B930B54178E
:1004700010F0CF96089501970895FC01918D828D1B
:10048000981761F0A28DAE0FBF2FB11D5D968C91B4
:10049000928D9F5F9F73928F90E008958FEF9FEFF3
:1004A0000895FC01918D828D981731F0828DE80FAF
:1004B000F11D858D90E008958FEF9FEF0895FC0169
:1004C000918D228D892F90E0805C9F4F821B910936
:1004D0008F739927089588E492E00E945F0221E0DB
:1004E000892B09F420E0822F0895FC01A48DA80F28
:1004F000B92FB11DA35ABF4F2C91848D90E0019666
:100500008F739927848FA689B7892C93A089B18985
:100510008C91837080648C93938D848D981306C026
:100520000288F389E02D80818F7D80830895EF928A
:10053000FF920F931F93CF93DF93EC0181E0888F9D
:100540009B8D8C8D98131AC0E889F989808185FF6D
:1005500015C09FB7F894EE89FF896083E889F9890F
:1005600080818370806480839FBF81E090E0DF9111
:10057000CF911F910F91FF90EF900895F62E0B8D64
:1005800010E00F5F1F4F0F731127E02E8C8D8E111F
:100590000CC00FB607FCFACFE889F989808185FF86
:1005A000F5CFCE010E947502F1CFEB8DEC0FFD2F40
:1005B000F11DE35AFF4FF0829FB7F8940B8FEA8941
:1005C000FB8980818062CFCFCF93DF93EC01888D50
:1005D0008823B9F0AA89BB89E889F9898C9185FDBE
:1005E00003C0808186FD0DC00FB607FCF7CF8C914C
:1005F00085FFF2CF808185FFEDCFCE010E9475028D
:10060000E9CFDF91CF91089580E090E0892B49F008
:1006100080E090E0892B29F00E94000081110E9467
:10062000000080E090E0892B49F080E090E0892B89
:1006300029F00E94000081110E94000080E090E0FB
:10064000892B49F080E090E0892B29F00E9400007E
:1006500081110E94000080E090E0892B29F00E9427
:100660006B0281110C94000008958150823108F0D2
:100670005AC0E82FF0E08827EF5BFC4F8F4F0C94B7
:100680001D0861036503530359035D039303680366
:100690006E03720378037C03800386038A0393034B
:1006A0008E0394039803809180008F77809380005D
:1006B0000895809180008F7DF9CF80918000877FA1
:1006C000F5CF84B58F7784BD089584B58F7DFBCF3A
:1006D0008091B0008F778093B00008958091B00032
:1006E0008F7DF9CF809190008F778093900008954F
:1006F000809190008F7DF9CF80919000877FF5CF1A
:100700008091A0008F778093A00008958091A00031
:100710008F7DF9CF8091A000877FF5CF8091200158
:100720008F77809320010895809120018F7DF9CFEC
:1007300080912001877FF5CFCF93DF93282F30E082
:10074000F901E25DFD4F8491F901E851FE4FD4912A
:10075000F901EE55FE4FC491CC23A1F081110E9406
:100760003503EC2FF0E0EE0FFF1FE857FE4FA59189
:10077000B491EC91ED2381E090E009F480E0DF9109
:10078000CF91089580E090E0FACF862F0C949C03DF
:100790001F93CF93DF93282F30E0F901E25DFD4FE7
:1007A0008491F901E851FE4FD491F901EE55FE4FC5
:1007B000C491CC23A9F0162F81110E943503EC2F90
:1007C000F0E0EE0FFF1FE259FE4FA591B4918FB7F5
:1007D000F894EC91111108C0D095DE23DC938FBF03
:1007E000DF91CF911F910895DE2BF8CF862F642FD4
:1007F0000C94C803CF93DF9390E0FC01E851FE4FC7
:1008000024918E559E4FFC0184918823C9F090E07D
:10081000880F991FFC01EC5AFE4FA591B491FC0181
:10082000E259FE4FC591D49161110DC09FB7F89464
:100830008C91209582238C938881282328839FBFC5
:10084000DF91CF910895623051F49FB7F8943C91B5
:10085000822F809583238C93E8812E2BEFCF8FB747
:10086000F894EC912E2B2C938FBFEACF862F642F18
:100870000C94FA033FB7F8948091390290913A02B0
:10088000A0913B02B0913C0226B5A89B05C02F3F2A
:1008900019F00196A11DB11D3FBFBA2FA92F982FA6
:1008A0008827BC01CD01620F711D811D911D42E0A1
:1008B000660F771F881F991F4A95D1F708958F9269
:1008C0009F92AF92BF92CF92DF92EF92FF924B0135
:1008D0005C010E943A046B017C010E943A046C198D
:1008E0007D098E099F09683E734081059105A8F333
:1008F00021E0821A9108A108B10888EEC80E83E0B1
:10090000D81EE11CF11C81149104A104B10429F743
:10091000FF90EF90DF90CF90BF90AF909F908F901F
:1009200008951F920F920FB60F9211240BB60F92DB
:100930002F933F934F935F936F937F938F939F93E7
:10094000AF93BF93EF93FF9388E492E00E94750208
:10095000FF91EF91BF91AF919F918F917F916F9197
:100960005F914F913F912F910F900BBE0F900FBE53
:100970000F901F9018951F920F920FB60F9211248F
:100980000BB60F922F938F939F93EF93FF93E0916A
:100990005802F09159028081E0915E02F0915F026D
:1009A00082FD1DC09081809161028F5F8F732091C5
:1009B0006202821741F0E0916102F0E0E85BFD4FD6
:1009C000958F80936102FF91EF919F918F912F916D
:1009D0000F900BBE0F900FBE0F901F901895808147
:1009E000F2CF1F920F920FB60F9211242F933F93C5
:1009F0008F939F93AF93BF93809144029091450250
:100A0000A0914602B09147023091380223E0230FB3
:100A10002D3758F50196A11DB11D20933802809302
:100A2000440290934502A0934602B09347028091FE
:100A3000390290913A02A0913B02B0913C0201969A
:100A4000A11DB11D8093390290933A02A0933B02FD
:100A5000B0933C02BF91AF919F918F913F912F91A5
:100A60000F900FBE0F901F90189526E8230F029647
:100A7000A11DB11DD2CF10924B0210924A0288EEF6
:100A800093E0A0E0B0E080934C0290934D02A093DD
:100A90004E02B0934F0287E192E090934902809317
:100AA000480285E391E0909355028093540284E3D9
:100AB00091E0909357028093560280E391E09093E7
:100AC00059028093580281E391E090935B028093F6
:100AD0005A0282E391E090935D0280935C0286E388
:100AE00091E090935F0280935E02109261021092F7
:100AF000620210926302109264021092E702109256
:100B0000EB021092EA021092EC0289E292E09093DA
:100B1000E6028093E502E1E0F3E0108214821382A2
:100B20001582369683E0ED33F807B9F783E092E05B
:100B3000909348038093470380E092E090934A03A8
:100B40008093490384E080934B0383E080934C03BC
:100B500087E092E090934603809345038AE090E01B
:100B600090934E0380934D0384EF91E09093500354
:100B700080934F031092530310925203109241033B
:100B800010924203109243031092440310925103B7
:100B90000895CF93DF9300D01F921F92CDB7DEB799
:100BA000789484B5826084BD84B5816084BD85B548
:100BB000826085BD85B5816085BD80916E00816054
:100BC00080936E00109281008091810082608093FA
:100BD00081008091810081608093810080918000FC
:100BE0008160809380008091B10084608093B10027
:100BF0008091B00081608093B0008091910082600C
:100C00008093910080919100816080939100809108
:100C100090008160809390008091A1008260809319
:100C2000A1008091A10081608093A1008091A0002B
:100C300081608093A00080912101826080932101D6
:100C40008091210181608093210180912001816048
:100C50008093200180917A00846080937A00809153
:100C60007A00826080937A0080917A00816080931C
:100C70007A0080917A00806880937A001092C10097
:100C800061E080E10E94FA0361E081E10E94FA03E1
:100C9000E0915802F091590282E08083E091540281
:100CA000F09155021082E0915602F09157028FECBC
:100CB000808310926002E0915C02F0915D0286E018
:100CC0008083E0915A02F0915B0280818061808391
:100CD000E0915A02F0915B02808188608083E0910C
:100CE0005A02F0915B02808180688083E0915A0211
:100CF000F0915B0280818F7D808360E080E10E94C3
:100D0000C80360E081E10E94C803412C512C3201EC
:100D10004394AA24AA94BA2C51E0509351038FB75C
:100D2000F8944091440250914502609146027091BE
:100D300047028FBF8091410390914203A0914303EA
:100D4000B0914403481B590B6A0B7B0B80914D03F8
:100D500090914E03B0E0A0E084179507A607B7076F
:100D600008F03EC110E080914B03181760F4E09149
:100D70004703F0914803E10FF11D62E080810E947A
:100D8000FA031F5FF0CF312C80914C03381608F026
:100D900061C0E32CF12CE0914903F0914A03EE0D80
:100DA000FF1D61E080810E94FA03E0914903F09108
:100DB0004A03EE0DFF1D60E080810E94C803D3014D
:100DC000C201032C04C0880F991FAA1FBB1F0A94DD
:100DD000D2F74C016C01C094D094212C80914B032C
:100DE000281608F5022D10E0E0914703F091480322
:100DF000E00FF11F80810E949C030C5F1F4F000FCA
:100E0000111FF801EB51FD4F892B41F48081918135
:100E100088299929918380832394E0CF80819181CF
:100E20008C219D21F7CFE0914903F0914A03EE0D0B
:100E3000FF1D61E080810E94C80380914903909169
:100E40004A03E80EF91E60E0F70180810E94FA0370
:100E500033949ACF05EE12E0F801878D90A1892B8B
:100E600021F4148EB68EA58E11A2369653E0E1328F
:100E7000F50799F7D12C80914B03D81608F053C091
:100E8000C12CED2CF12CEE0CFF1CC70183519D4FA2
:100E90007C0120914C03C21608F043C0F701608129
:100EA00071810C2C02C0769567950A94E2F7D29E68
:100EB000900111242C0D311DE5EEF2E080E0458D0E
:100EC000568D2417350709F4B6C08F5F36968A30E1
:100ED000B1F760FF24C0E5EEF2E090E080E0448DE1
:100EE000411118C0E0914503F0914603E20FF31F52
:100EF000408156E0589FF001599FF00D1124EB51AD
:100F0000FD4F448F368F258F10A2178E61E00E940F
:100F1000910105C0019636968A30910501F7C39478
:100F2000B8CFD394A8CF80E0F80191A19111892F77
:100F30000A5F1F4FF3E001321F07B1F79FB7F89424
:100F400040914402509145026091460270914702DF
:100F50009FBF4093410350934203609343037093B8
:100F600044038823E9F1809106038823C9F1809125
:100F7000040390910503019799F5609101036111B4
:100F800032C08091420290914302049731F585E08E
:100F9000E2E3F2E0DE01119601900D928A95E1F70D
:100FA00045E050E0BE016F5F7F4F8DE392E00E940D
:100FB0002508892BD1F560E080E10E94C80361E03B
:100FC00081E10E94C80368EC70E080E090E00E943C
:100FD0005F0410924302109242020E9404039CCECE
:100FE00010925103CECF80914202909143029C0116
:100FF0002F5F3F4F3093430220934202835C9D4F0B
:10100000FC01608388E492E00E94970242E050E095
:101010006FE272E088E492E00E94010264E670E010
:1010200080E090E00E945F04ACCF61E080E10E942C
:10103000C80360E0C5CF61706ACFEE0FFF1F881F45
:101040008BBF0790F691E02D1994FB01DC01415014
:10105000504030F08D910190801919F40020B9F7BB
:0A106000881B990B0895F894FFCF48
:10106A000D0C0B0A09080731323334353637383953
:10107A002A302300000000970201022E02E4025FD8
:10108A00023D025102000000003604F603C5030DBA
:08109A000A003132333400007A
:00000001FF
