:100000000C942F010C9460010C9460010C9460011D
:100010000C9460010C9460010C9460010C946001DC
:100020000C9460010C9460010C9460010C946001CC
:100030000C9460010C9460010C9460010C946001BC
:100040000C9460010C9460010C9460010C946001AC
:100050000C9460010C9460010C9460010C947C047D
:100060000C9460010C9460010C9460010C9460018C
:100070000C9460010C9460010C9460010C9460017C
:100080000C9460010C9460010C9460010C9460016C
:100090000C9460010C9460010C9460010C9460015C
:1000A0000C9460010C9460010C9460010C9460014C
:1000B0000C9460010C9460010C9460010C9460013C
:1000C0000C9460010C9460010C9460010C9460012C
:1000D0000C9460010C9460010C9460010C9460011C
:1000E0000C9460010C94E1020C9476040C94ED01E4
:1000F0000C94C8010C94EE010C9462010C94B701AD
:100100000C94B3010C94BB010C94CC010C94AD0184
:100110000C94E8010C94E0010C94F2010C94E002C0
:100120000C94CE060C94DA010C94C2010C94BF011D
:100130000C94E4010C94D6010C94D201000021002F
:10014000240027002A002D003000330001010000A8
:10015000040107010A0100002200250028002B00ED
:100160002E003100340002010000050108010B01DE
:10017000000020002300260029002C002F00320060
:100180000001000003010601090105050505070539
:1001900008080808020202020A0A08080404040403
:1001A000010101010101010103030303030303032F
:1001B000040707070C0C0C0C0C0C0C0C02020202BE
:1001C00006060606060606060B0B0B0B0B0B0B0BA7
:1001D0000102102020080810204010204080020159
:1001E000020108040201010204081020408080403E
:1001F000201008040201800402018040201008043D
:1002000002010804020101020408102040800102DA
:1002100004081020408000000A0B02090C0D0E0893
:1002200007030401000000000000000000000000BF
:1002300000000000000000000000000000000000BE
:10024000000012111000000000000000000000007B
:10025000000000000000000000000000CE06112495
:100260001FBECFEFD1E2DEBFCDBF00E00CBF12E07A
:10027000A0E0B2E0E8EAF2E100E00BBF02C00790C4
:100280000D92A834B107D9F722E0A8E4B2E001C08A
:100290001D92AF36B207E1F711E0CFE2D1E000E006
:1002A00006C021970109802FFE010E944A09CE3223
:1002B000D10780E00807A9F70E94C6040C945209F0
:1002C0000C940000AF92BF92CF92DF92EF92FF9218
:1002D0000F931F93CF93DF936C017B018B01040F6E
:1002E000151FEB015E01AE18BF08C017D10759F00A
:1002F0006991D601ED91FC910190F081E02DC6014C
:100300001995892B79F7C501DF91CF911F910F9135
:10031000FF90EF90DF90CF90BF90AF900895815005
:10032000823108F05AC0E82FF0E08827E556FE4FEA
:100330008F4F0C944A09BB01BF01AD01B301B70156
:10034000ED01C201C801CC01D201D601DA01E00100
:10035000E401ED01E801EE01F201809180008F7768
:10036000809380000895809180008F7DF9CF8091E7
:100370008000877FF5CF84B58F7784BD089584B5DD
:100380008F7DFBCF8091B0008F778093B000089570
:100390008091B0008F7DF9CF809190008F7780930E
:1003A00090000895809190008F7DF9CF809190000A
:1003B000877FF5CF8091A0008F778093A00008956C
:1003C0008091A0008F7DF9CF8091A000877FF5CF2D
:1003D000809120018F7780932001089580912001E2
:1003E0008F7DF9CF80912001877FF5CFCF93DF9369
:1003F000282F30E0F901EA5EFD4F8491F901E053C6
:10040000FE4FD491F901E657FE4FC491CC23A1F0E1
:1004100081110E948F01EC2FF0E0EE0FFF1FE059D9
:10042000FE4FA591B491EC91ED2381E090E009F4A9
:1004300080E0DF91CF91089580E090E0FACF1F93A4
:10044000CF93DF93282F30E0F901EA5EFD4F8491CE
:10045000F901E053FE4FD491F901E657FE4FC491E4
:10046000CC23A9F0162F81110E948F01EC2FF0E010
:10047000EE0FFF1FEA5AFE4FA591B4918FB7F89483
:10048000EC91111108C0D095DE23DC938FBFDF9172
:10049000CF911F910895DE2BF8CFCF93DF9390E09B
:1004A000FC01E053FE4F249186579E4FFC0184913E
:1004B0008823C9F090E0880F991FFC01E45CFE4F8F
:1004C000A591B491FC01EA5AFE4FC591D4916111F6
:1004D0000DC09FB7F8948C91209582238C938881CE
:1004E000282328839FBFDF91CF910895623051F474
:1004F0009FB7F8943C91822F809583238C93E88159
:100500002E2BEFCF8FB7F894EC912E2B2C938FBF1F
:10051000EACF3FB7F89480914D0290914E02A0919E
:100520004F02B091500226B5A89B05C02F3F19F08D
:100530000196A11DB11D3FBFBA2FA92F982F882763
:10054000BC01CD01620F711D811D911D42E0660F3E
:10055000771F881F991F4A95D1F708958F929F9210
:10056000AF92BF92CF92DF92EF92FF924B015C016C
:100570000E9489026B017C010E9489026C197D092D
:100580008E099F09683E734081059105A8F321E01B
:10059000821A9108A108B10888EEC80E83E0D81E1F
:1005A000E11CF11C81149104A104B10429F7FF900E
:1005B000EF90DF90CF90BF90AF909F908F90089575
:1005C000089590E080E00895FC0101900020E9F793
:1005D0003197AF01481B590BBC0187E592E00C94A1
:1005E00062018F929F92AF92BF920F931F93CF930E
:1005F000DF93CDB7DEB7A1970FB6F894DEBF0FBE7D
:10060000CDBF19A2423008F44AE08E010F5D1F4FA2
:10061000842E912CB12CA12CA50194010E942809B3
:10062000E62FB901CA01EA30F4F4E05DD801EE9397
:100630008D01232B242B252B79F790E080E0109758
:1006400019F0CD010E94E402A1960FB6F894DEBF26
:100650000FBECDBFDF91CF911F910F91BF90AF9093
:100660009F908F900895E95CE1CFCF93DF93EC01E9
:1006700060E08E810E941F0261E08E810E941F0255
:1006800060E08E810E941F028BE891E00197F1F7F4
:10069000DF91CF910895CF92DF92EF92FF920F9367
:1006A0001F93CF93DF936C017C0187E0E80EF11C70
:1006B000D0E0C0E0062F10E0B8010C2E02C0759506
:1006C00067950A94E2F76170F70181917F010E94BA
:1006D0001F022196C430D10579F7C601DF91CF9171
:1006E0001F910F91FF90EF90DF90CF900C94350306
:1006F000CF92DF92EF92FF920F931F93CF93DF93EE
:10070000EC01F62E642F8C810E941F028D818F3F99
:1007100019F060E00E941F020F2D10E08F8584FF0A
:1007200025C06E0187E0C80ED11CF12CE12CB80168
:100730000E2C02C0759567950A94E2F76170F60178
:1007400081916F010E941F02FFEFEF1AFF0A88E0FC
:10075000E816F10461F7CE01DF91CF911F910F915F
:10076000FF90EF90DF90CF900C943503B80184E0B8
:10077000759567958A95E1F7CE010E944B036F2D21
:10078000CE01DF91CF911F910F91FF90EF90DF90FD
:10079000CF900C944B0340E0682F87E592E00C94D7
:1007A0007803CF93DF93613029F0909166029860CF
:1007B0009093660260936A0210926B0290E49093A9
:1007C0006C0280936D02805C80936E0261E0809188
:1007D0005B020E944D0280915C028F3F19F061E044
:1007E0000E944D0261E080915D020E944D02C7E5CA
:1007F000D2E09E01275532408091660284FD0BC0F5
:1008000084E090E021962817390744F461E08E8156
:100810000E944D02EECF88E090E0F4CF8BE39DE0A4
:100820000197F1F760E080915B020E941F0260E097
:1008300080915D020E941F0280915C028F3F19F03F
:1008400060E00E941F028091660284FD39C063E06F
:1008500087E592E00E944B03CBE4D6E4CE010197FA
:10086000F1F763E087E592E00E944B032197F1F7EF
:1008700063E087E592E00E944B0383E592E00197F5
:10088000F1F762E087E592E00E944B0380916602F7
:1008900080620E94CB0384E0809367028CE00E9418
:1008A000CB0381E00E94CB038BE39FE10197F1F73B
:1008B00082E08093680286E0DF91CF910C94CB03B5
:1008C00080620E94CB038BE496E40197F1F780915C
:1008D000660280620E94CB0383E592E00197F1F704
:1008E0008091660280620E94CB03D0CF41E00E94DB
:1008F000780381E090E008951F920F920FB60F9257
:1009000011242F933F938F939F93AF93BF93809125
:10091000490290914A02A0914B02B0914C02309151
:10092000480223E0230F2D3758F50196A11DB11D74
:10093000209348028093490290934A02A0934B026D
:10094000B0934C0280914D0290914E02A0914F02C3
:10095000B09150020196A11DB11D80934D0290935C
:100960004E02A0934F02B0935002BF91AF919F915E
:100970008F913F912F910F900FBE0F901F90189560
:1009800026E8230F0296A11DB11DD2CF789484B51D
:10099000826084BD84B5816084BD85B5826085BD7B
:1009A00085B5816085BD80916E00816080936E0009
:1009B00010928100809181008260809381008091FB
:1009C00081008160809381008091800081608093AC
:1009D00080008091B10084608093B1008091B0006C
:1009E00081608093B000809191008260809391003B
:1009F000809191008160809391008091900081604E
:100A0000809390008091A10082608093A1008091EA
:100A1000A10081608093A1008091A00081608093FB
:100A2000A0008091210182608093210180912101A9
:100A30008160809321018091200181608093200159
:100A400080917A00846080937A0080917A0082603D
:100A500080937A0080917A00816080937A008091FF
:100A60007A00806880937A001092C10082E08093BF
:100A7000000264E084E10E94D10361E083E10E940E
:100A80004D0260E087E30E944D0262E086E30E942F
:100A90004D0261E082E10E944D02CBE3DFE100E024
:100AA00010E080917B00877F80937B008091000223
:100AB00020E4829FC0011124826080937C00809199
:100AC0007A00806480937A0080917A0086FDFCCF62
:100AD0008091780060917900762F682F072E000CA6
:100AE000880B990B0E94010820E030E849E854E4A3
:100AF0000E94B60820E030E040E256E40E945E0723
:100B0000609353027093540280935502909356025F
:100B10008DE092E00E94E402C0905302D090540213
:100B2000E0905502F0905602A7019601C701B60168
:100B30000E942309882309F46BC085E192E00E949A
:100B4000E402C0905302D0905402E0905502F0901D
:100B5000560220E030E040EF51E4C701B6010E94A8
:100B6000B10887FDEBC0E0916A02E23008F0E4C012
:100B7000E150F0E0E95AFD4F848980680E94CB0380
:100B800081E292E00E94E40284E392E00E94E402A7
:100B900064EF71E080E090E00E94AE0281E00E948C
:100BA000CB03CE010197F1F786E30E94F60101978E
:100BB00009F0E0C061E082E10E941F0268EC70E091
:100BC00080E090E00E94AE0287E30E94F6017C0183
:100BD00081E0E816F10409F0D2C061E083E10E94EF
:100BE0001F0268EC70E080E090E00E94AE0280910D
:100BF000510290915202892B21F4F0925202E0921C
:100C000051020115110509F44CCF0E94000049CF93
:100C100046015701E894B7F82FEF3FEF4FE75FE742
:100C2000C501B4010E94230981110DC02FEF3FEFD0
:100C30004FE75FE7C501B4010E94590718161CF47D
:100C400089E192E07CCF2FEF3FEF4FE75FE4C701F0
:100C5000B6010E94B10818161CF48DE192E06FCF26
:100C60002FEF3FEF4FE75FECC701B6010E94590736
:100C700087FDF3CF20E030E0A901C701B6010E9453
:100C8000590787FF0AC041E06DE287E592E00E94C4
:100C90007803F7FAF094F7F8F0942AE037ED43EA96
:100CA0005BE3C701B6010E94ED064B015C010E94A7
:100CB000D0076B017C010E94FF079B01AC01C501BD
:100CC000B4010E94EC064B015C014AE0C701B60189
:100CD0000E94F10241E06EE287E592E00E94780313
:100CE00020E030E040E251E4C501B4010E94B608C2
:100CF0004B015C010E94D0076B01F12CE12C4AE012
:100D0000C701B6010E94F102C701B6010E94FF07A8
:100D10009B01AC01C501B4010E94EC0620E030E06B
:100D200040E251E40E94B6080E94D00790E080E0C3
:100D30004AE00E94F10205CFE1E01BCF20E030E065
:100D400040EA51E4C701B6010E94590718160CF495
:100D50001FCFE0916A02E23058F4E150F0E0E95A26
:100D6000FD4F848980680E94CB0387E392E00ACF1D
:100D7000E1E0F4CF60E082E10E941F0225CF60E055
:100D800083E10E941F0268EC70E080E090E00E9426
:100D9000AE02109252021092510233CFE7E5F2E018
:100DA0001382128285E092E09183808381E08483C4
:100DB0008FEF8583168285E0878384E0808783E0D8
:100DC000818782E0828713861486158616861786A9
:100DD00061E080E10C94D1035058BB27AA270E9400
:100DE00004070C9477080E94690838F00E94700884
:100DF00020F039F49F3F19F426F40C9466080EF4A1
:100E0000E095E7FB0C946008E92F0E94880858F3EE
:100E1000BA17620773078407950720F079F4A6F5DF
:100E20000C94AA080EF4E0950B2EBA2FA02D0B01FE
:100E3000B90190010C01CA01A0011124FF27591B1F
:100E400099F0593F50F4503E68F11A16F040A22F25
:100E5000232F342F4427585FF3CF46953795279596
:100E6000A795F0405395C9F77EF41F16BA0B620B95
:100E7000730B840BBAF09150A1F0FF0FBB1F661FDC
:100E8000771F881FC2F70EC0BA0F621F731F841F1F
:100E900048F4879577956795B795F7959E3F08F045
:100EA000B0CF9395880F08F09927EE0F9795879507
:100EB00008950E943C0808F481E008950E9472079A
:100EC0000C9477080E94700858F00E94690840F05E
:100ED00029F45F3F29F00C94600851110C94AB0881
:100EE0000C9466080E94880868F39923B1F355238F
:100EF00091F3951B550BBB27AA276217730784072D
:100F000038F09F5F5F4F220F331F441FAA1FA9F3C2
:100F100035D00E2E3AF0E0E832D091505040E695B0
:100F2000001CCAF72BD0FE2F29D0660F771F881F11
:100F3000BB1F261737074807AB07B0E809F0BB0B04
:100F4000802DBF01FF2793585F4F3AF09E3F510518
:100F500078F00C9460080C94AB085F3FE4F3983E83
:100F6000D4F3869577956795B795F7959F5FC9F701
:100F7000880F911D9695879597F90895E1E0660F82
:100F8000771F881FBB1F621773078407BA0720F0FB
:100F9000621B730B840BBA0BEE1F88F7E095089564
:100FA0000E94900888F09F5798F0B92F9927B75161
:100FB000B0F0E1F0660F771F881F991F1AF0BA95FD
:100FC000C9F714C0B13091F00E94AA08B1E00895A9
:100FD0000C94AA08672F782F8827B85F39F0B93F9B
:100FE000CCF3869577956795B395D9F73EF49095B0
:100FF0008095709561957F4F8F4F9F4F0895E8942E
:1010000009C097FB3EF490958095709561957F4F50
:101010008F4F9F4F9923A9F0F92F96E9BB279395FE
:10102000F695879577956795B795F111F8CFFAF40E
:10103000BB0F11F460FF1BC06F5F7F4F8F4F9F4F3F
:1010400016C0882311F096E911C0772321F09EE89D
:10105000872F762F05C0662371F096E8862F70E003
:1010600060E02AF09A95660F771F881FDAF7880FDD
:101070009695879597F90895990F0008550FAA0B33
:10108000E0E8FEEF16161706E807F907C0F012169B
:101090001306E407F50798F0621B730B840B950B9E
:1010A00039F40A2661F0232B242B252B21F40895F3
:1010B0000A2609F4A140A6958FEF811D811D089590
:1010C00097F99F6780E870E060E008959FEF80ECFB
:1010D000089500240A94161617061806090608959E
:1010E00000240A9412161306140605060895092E04
:1010F0000394000C11F4882352F0BB0F40F4BF2B73
:1011000011F460FF04C06F5F7F4F8F4F9F4F0895B2
:1011100057FD9058440F551F59F05F3F71F04795A8
:10112000880F97FB991F61F09F3F79F0879508958D
:10113000121613061406551FF2CF4695F1DF08C0AC
:10114000161617061806991FF1CF869571056105C9
:1011500008940895E894BB2766277727CB0197F971
:1011600008950E943C0808F48FEF08950E94C90872
:101170000C9477080E94690838F00E94700820F0EB
:10118000952311F00C9460080C94660811240C94BB
:10119000AB080E94880870F3959FC1F3950F50E04B
:1011A000551F629FF001729FBB27F00DB11D639F19
:1011B000AA27F00DB11DAA1F649F6627B00DA11DBF
:1011C000661F829F2227B00DA11D621F739FB00D65
:1011D000A11D621F839FA00D611D221F749F3327D5
:1011E000A00D611D231F849F600D211D822F762F6E
:1011F0006A2F11249F5750409AF0F1F088234AF04B
:10120000EE0FFF1FBB1F661F771F881F91505040B6
:10121000A9F79E3F510580F00C9460080C94AB0830
:101220005F3FE4F3983ED4F3869577956795B7953D
:10123000F795E7959F5FC1F7FE2B880F911D969557
:10124000879597F908950E943C08880B990B08959B
:10125000A1E21A2EAA1BBB1BFD010DC0AA1FBB1FBA
:10126000EE1FFF1FA217B307E407F50720F0A21B2C
:10127000B30BE40BF50B661F771F881F991F1A9499
:1012800069F760957095809590959B01AC01BD01C3
:10129000CF010895EE0FFF1F881F8BBF0790F691B7
:0812A000E02D1994F894FFCF32
:1012A800010000000076046201E102E00254454DAD
:1012B800503A2020006E616E00696E66006F766697
:1012C80000536963616B6C696B2059756B73656C4E
:1012D80064692E000D0A00536963616B6C696B20A9
:0812E80044757374752E0000BB
:00000001FF
